:020000040800F2
:1000000010280020C5010008CD0A0008CB02000816
:10001000C90A00081F0900083F100008000000007E
:10002000000000000000000000000000F90B0008C4
:10003000230900080000000017020008290D00082D
:10004000DF010008DF010008DF010008DF01000810
:10005000DF010008DF010008DF010008DF01000800
:10006000DF010008DF010008DF010008DF010008F0
:10007000DF010008DF010008DF010008DF010008E0
:10008000DF010008DF010008DF010008DF010008D0
:10009000DF010008DF010008DF010008DF010008C0
:1000A000DF010008DF010008DF010008DF010008B0
:1000B000DF010008DF010008DF010008DF010008A0
:1000C000DF010008DF010008DF010008DF01000890
:1000D000DF010008DF010008DF010008DF01000880
:1000E000DF010008DF010008DF010008DF01000870
:1000F000DF010008DF010008DF010008DF01000860
:10010000DF010008DF010008DF010008DF0100084F
:10011000DF010008DF010008DF010008DF0100083F
:10012000DF010008DF010008DF010008DF0100082F
:10013000DF010008DF010008DF010008DF0100081F
:10014000DF010008DF010008DF010008DF0100080F
:10015000DF010008DF010008DF010008DF010008FF
:10016000DF010008DF010008DF010008DF010008EF
:10017000DF010008DF010008DF010008DF010008DF
:10018000DF010008DF010008DF010008DF010008CF
:10019000DF010008DF010008DF010008DF010008BF
:1001A0000000000000000000DF010008DFF810D0B0
:1001B00000F09EFB0048004715090008AFF30080DF
:1001C000102800200648804706480047FEE7FEE763
:1001D000FEE7FEE7FEE7FEE7FEE7FEE7FEE7FEE7F7
:1001E000F90D0008AD010008EFF3108072B67047FA
:1001F00080F310887047434A1368012B04D04FF0F6
:1002000001031360404A1060404A116040484FF0BB
:10021000805101607047EFF3108272B6394801686F
:1002200051B34FF0000101603748016891B1EFF31D
:1002300009811EF0100F08BF21ED108B21E9F00F8E
:100240004FF000041EF0100F08BF012441F8044DC8
:10025000006801602D490968096808C9B1E8F00F14
:10026000002B18BFB1EC108B81F309884EF0100EF3
:10027000002B18BF2EF0100E82F310884EF0040EE3
:10028000704722490860EFF3148222F0040282F3DF
:1002900014881D494FF0000008601A494FF0010012
:1002A00008601C484FF47F01D0F8002041EA0201A9
:1002B000016017484FF080510160174800680068DE
:1002C00080F3088861B662B670471EF0040F0CBF59
:1002D000EFF30880EFF3098020E9F00F40F804ED18
:1002E00040F804ED1EF0040F0CBF80F3088880F383
:1002F000098800B503F018F85DF804EB4EF0040E21
:1003000070470000340000202C0000203000002046
:1003100004ED00E020ED00E008ED00E040EA01031C
:100320009B0703D009E008C9121F08C0042AFAD2AB
:1003300003E011F8013B00F8013B521EF9D270476F
:10034000D2B201E000F8012B491EFBD27047002217
:10035000F6E710B513460A4604461946FFF7F0FFC4
:10036000204610BD421E12F8013F002BFBD111F8B0
:10037000013B02F8013B002BF9D1704710B5044650
:1003800004E00B7800F8013B03B1491C521EF8D27F
:10039000204610BD421C10F8011B0029FBD1801A19
:1003A0007047034611F8012B00F8012B002AF9D100
:1003B0001846704730B505460020034600E05B1C38
:1003C000934205D2EC5CC85C201A01D1002CF6D116
:1003D00030BD2DE9FE4F804681EA0300C00F0C4678
:1003E000009021F0004123F00045B8EB0200A94144
:1003F00005D24046214690461C460B46024623F055
:100400000040104347D0270DC7F30A00C3F30A5139
:100410000290401A019040286BDAC3F3130040F4B5
:10042000801B0098924620B10023D2EB030A63EBB5
:100430000B0B01985946C0F14002504600F0B1F94B
:1004400006460D4650465946019A00F0C9F910EB90
:1004500008006141002487EA115284EAE7731A43D5
:1004600040D0009A62B3019A012A4FEA075215DC84
:10047000001B61EB02014FF0004202EA0752CDE996
:100480000042001C41F5801132462B4600F0C9F9AC
:1004900003B0BDE8F08F40462146F9E7001B61EB51
:1004A0000201001C41F5801300185B412018A2F5E1
:1004B000001747EB030140EAD570B6196D4111E012
:1004C0006D084FEA360645EAC0754FEA0752001B31
:1004D00061EB0201001C41F5801149084FEA300030
:1004E0000019514132462B4603B0BDE8F04F00F0F1
:1004F00089B90098012240000023D0EB020263EB8F
:10050000E073009821464FEAE074B8EB000061EB1D
:100510000401E9E783F000435BE781F0004158E71D
:100520002DE9FE4F81EA030404F0004421F000416C
:1005300000944FF0000B23F0004350EA01045ED01A
:1005400052EA03045BD0C3F30A54C1F30A552C44A6
:10055000A4F2F3340194A0FB0254C1F3130141F45B
:100560008011C3F3130343F4801301FB024400FB27
:10057000034E840A970A44EA815447EA8357A4FB4E
:10058000076802958D0A05FB07854FEA932C04FB4B
:100590000C542705029D4FEA065847EA1637B5EB7B
:1005A00008056EEB070C870E920E47EA811742EAA8
:1005B0008312A7FB0201B6EB0B0164EB00042B0DC9
:1005C00043EA0C335E1844EB1C50DA465146E7FB15
:1005D0000201C5F313044FEA0B3343EA14534FEA05
:1005E0000432019C43EA0603A4F10C040294009C2B
:1005F000CDE900B400F015F903B0BDE8F08F00209C
:100600000146F9E72DE9F04D81EA030404F0004BBF
:1006100021F0004514464FF0000A23F0004150EA53
:10062000050220D054EA01021DD0C5F30A57024644
:10063000C5F31303C1F31300C1F30A5640F4801548
:1006400043F48013A7EB0608101BD64608F2FD38CA
:1006500073EB050002D308F1010801E092185B4139
:10066000B8F1000F03DA00200146BDE8F08D00204C
:100670004FF48011064684460EE0171B73EB050706
:1006800005D3121B63EB050306434CEA010C490832
:100690004FEA300092185B4150EA0107EDD152EA6F
:1006A000030012D082EA040083EA0501084305D062
:1006B000101BAB4106D20122002306E000224FF0BE
:1006C000004302E06FF0010253101AEB06004CEBFE
:1006D000085110EB0A0041EB0B01BDE8F04D00F0B2
:1006E00091B8000030B5041E71F1000404DB4FF036
:1006F0000044404264EB0101141E73F1000405DB69
:100700001C464FF00043524263EB0403994208BF7A
:10071000904230BD30B50B46014600202022012416
:1007200009E021FA02F59D4205D303FA02F5491BBF
:1007300004FA02F52844151EA2F10102F1DC30BDD5
:100740002DE9F05F0546002092469B468846064606
:10075000814640241BE0284641464746224600F099
:100760002FF853465A46C01A914110D311461846E5
:10077000224600F016F82D1A67EB01084F46224674
:100780000120002100F00DF817EB00094E41201E5A
:10079000A4F10104DFDC484631462A464346BDE861
:1007A000F09F202A04DB203A00FA02F10020704773
:1007B0009140C2F1200320FA03F31943904070479F
:1007C000202A04DB203A21FA02F00021704721FAA6
:1007D00002F3D040C2F1200291400843194670470D
:1007E000202A06DBCB17203A41FA02F043EAE073F5
:1007F00006E041FA02F3D040C2F1200291400843E2
:100800001946704710B5141E73F1000408DA401C35
:1008100041F1000192185B411A4301D120F001001F
:1008200010BD2DE9F04D92469B4611B1B1FA81F20F
:1008300002E0B0FA80F220329046FFF7B2FF0446A1
:100840000F4640EA0A0041EA0B0153465A46084364
:1008500013D0114653EA010019D0C8F140025046A6
:10086000FFF7AEFF05460E46504659464246FFF793
:1008700098FF084305D0012004E020463946BDE832
:10088000F08D0020054346EAE0762C4337430A9872
:100890006305E40AA0EB08000022FD0A44EA47547D
:1008A0000A3002D500200146E9E701051019694127
:1008B000DDE9084500196941BDE8F04DA2E7C1F343
:1008C0000A52C1F3130140F2FF3341F480119A42FE
:1008D00002DA00200146704740F233439A42A2F206
:1008E000334202DC5242FFF76BBFFFF75ABF0000F2
:1008F000064C074D06E0E06840F0010394E807006D
:1009000098471034AC42F6D3FFF754FC184F000858
:10091000384F000810B503F0AFFF002010BD00BF36
:10092000FEE770471CB50121084600F0D1F801210F
:10093000022000F0CDF80121042000F0C9F80121C7
:10094000082000F0C5F80121102000F0C1F8F020C7
:10095000009001208DF8040000208DF8060003208F
:100960008DF8050001208DF807006946034800F066
:1009700007F80F2000F070F81CBD000000040240D2
:10098000F0B50A4600210023002400BF3DE0012508
:1009900005FA01F3156805EA03049C4234D10568A1
:1009A0004F000326BE40B543056015794E00B540A3
:1009B0000668354305601579012D02D01579022DA1
:1009C00016D185684F000326BE40B5438560557932
:1009D0004E00B540866835438560456801268E40E7
:1009E000B5434560456896798E40B6B2354345605B
:1009F000C5684F000326BE40B543C560D5794E009B
:100A0000B540C6683543C560491C1029BFD3F0BD49
:100A1000F0B5002300244D07ED0E02FA05F3CE10C9
:100A200000F1200555F826504E07F70E0F26BE4060
:100A3000B543CF1000F1200646F82750CE1000F144
:100A4000200555F8265045EA0304CE1000F1200594
:100A500045F82640F0BD000000F0010111B18021F1
:100A60000A4A118000F0020111B14021074A1180A9
:100A700000F0040111B12021044A118000F00801A6
:100A800011B11021014A1180704700001804024082
:100A900000F0010111B180210A4A118000F0020129
:100AA00011B14021074A118000F0040111B1202149
:100AB000044A118000F0080111B11021014A11808F
:100AC000704700001A04024000BFFEE770470000B4
:100AD00029B1064A12680243044B1A6004E0034A33
:100AE00012688243014B1A607047000030380240A0
:100AF00029B1064A12680243044B1A6004E0034A13
:100B000012688243014B1A6070470000443802406B
:100B1000F0B5002100220024022500260223324FD6
:100B20003F6807F00C0121B1042905D0082937D10D
:100B300005E02E4F076036E02D4F076033E02A4F67
:100B40003F1F3F68C7F38056274F3F1F3F6807F09E
:100B50003F036EB1264FB7FBF3F7DFF88CC0ACF163
:100B6000040CDCF800C0CCF3881C07FB0CF40CE090
:100B70001E4FB7FBF3F7DFF870C0ACF1040CDCF8E4
:100B800000C0CCF3881C07FB0CF4174F3F1F3F68D5
:100B9000C7F301477F1C7D00B4FBF5F7076002E057
:100BA000124F076000BF00BF0F4F3F6807F0F00112
:100BB0000909104F7A5C0768D74047600A4F3F68C1
:100BC00007F4E051890A0B4F7A5C4768D740876089
:100BD000054F3F6807F46041490B064F7A5C476850
:100BE000D740C760F0BD0000083802400024F40080
:100BF00040787D0104000020704700000CB5002003
:100C0000019000904448006840F4803042490860F8
:100C10000846006840F48020086000BF3E48006835
:100C200000F4003000900198401C0190009818B921
:100C30000198B0F5A04FF1D13748006800F40030BA
:100C400010B10120009001E00020009000980128E0
:100C500060D131484030006840F080502E4940312A
:100C600008602E48006840F440402C4908602A483B
:100C7000083000682849083108600846006840F4D8
:100C8000004008600846006840F4A050086024480E
:100C9000091F0860081F006840F08070091F086085
:100CA00000BF1D48006800F000700028F9D01B4804
:100CB000006840F480301949086000BF1748406858
:100CC00000F480300028F9D01448006840F4003067
:100CD0001249086000BF1148406800F40030002845
:100CE000F9D040F205700F4908600B4808300068E1
:100CF00020F003000849083108600846006840F009
:100D00000200086000BF04480830006800F00C00D2
:100D10000828F8D10CBD00000038024000700040E7
:100D2000195A4007003C024010B502F03BFC03F0AA
:100D3000A7FA02F047FC10BD70B500200022022384
:100D400000240221274D2D6805F00C0020B1042855
:100D500006D0082834D107E0234D244E356033E017
:100D6000234D224E35602FE01E4D2D1F2D68C5F3FB
:100D700080541C4D2D1F2D6805F03F0154B11C4DB2
:100D8000B5FBF1F5174E361F3668C6F3881605FB1E
:100D900006F209E0144DB5FBF1F5124E361F366828
:100DA000C6F3881605FB06F20E4D2D1F2D68C5F300
:100DB00001456D1C6B00B2FBF3F50C4E356003E092
:100DC000094D0A4E356000BF00BF064D2D68C5F3C2
:100DD0000315084E705D054D2D68C540034E356006
:100DE00070BD0000083802400024F4001400002008
:100DF00040787D011800002010B51548006840F4C7
:100E00007000134908601348006840F00100114960
:100E1000086000200F49083108600E4800680E493C
:100E200008400C4908600D48091D0860081F00684B
:100E300020F48020091F0860002006490C3108605A
:100E4000FFF7DCFE4FF0006001498039086010BDFB
:100E500088ED00E000380240FFFFF6FE103000246D
:100E600001F40072B2F5007F00D100BFCA430280D6
:100E7000704710B50022002340F66A14A14200D149
:100E800000BF0A1201249440A3B2DC43048010BDC9
:100E900021B1828942F40052828104E082894DF6B8
:100EA000FF731A408281704702460020B1F5007F2F
:100EB00000D100BF13880B400BB1012000E00020DF
:100EC000704770B50246002400230025002040F63C
:100ED0006A16B14200D100BFC1F3421501F01F03F1
:100EE000012606FA03F3012D02D19689334006E06C
:100EF000022D02D1168A334001E0968A33400C124B
:100F0000012606FA04F41688344013B10CB101200E
:100F100000E0002070BDF0B5034600240026002547
:100F2000002040F66A17B94200D100BF1846C1F34D
:100F3000421401F01F06012707FA06F5012C01D122
:100F40000C3004E0022C01D1103000E014301AB152
:100F500007682F43076002E00768AF430760F0BDF2
:100F60002DE9FF4705460E460024A14600BFA046D6
:100F7000B08900B100BF2C8A24F44054F0880443A7
:100F80002C82AC8941F20C608443B08831890843DB
:100F9000718908430443AC81AC8A24F44074B0895D
:100FA0000443AC826846FFF7B3FD2048854202D077
:100FB0001F48854202D1DDF80C9001E0DDF8089071
:100FC000A88900F4004040B109EBC90000EB09100A
:100FD00031684900B0FBF1F707E009EBC90000EB0D
:100FE000091031688900B0FBF1F76420B7FBF0F01D
:100FF00004012009642101FB1078A88900F4004055
:1010000040B1322000EBC800B0FBF1F000F0070067
:10101000044308E0322000EB08106421B0FBF1F03B
:1010200000F00F0004432C81BDE8FF870010014051
:101030000014014001468888C0F30800704700BFD3
:10104000FEE700000146481EB0F1807F01D3012079
:101050007047481E4FF0E0225061FF20044A107094
:1010600000204FF0E0229061072010610020EFE7A0
:1010700023ED00E00FB4054B10B503A9044A029814
:1010800000F036F910BC5DF814FB0000F1210008F7
:1010900000000020014609B900207047C8B220B105
:1010A000C8B20E4A105C401CF7E701F47F4028B13B
:1010B0000A48C1F30722805C0930EEE701F47F00A3
:1010C00028B10648C1F30742805C1130E5E70348C8
:1010D00000EB116000781930DFE70000964A000845
:1010E00002E008C8121F08C1002AFAD170477047F1
:1010F000002001E001C1121F002AFBD1704700004F
:101100002DE9FF5F82B00021DDE90430020DDDF83A
:1011100040B0034318D044F61050A2F2FF324243CD
:101120001514119801281FD0A5EB0B00401C5FEA95
:10113000000A4FF000064E4FDFF83891B046504697
:1011400015D5CAF1000413E0119801244AA301281F
:1011500001D16FEA0B010298119AC0E90031C0E990
:10116000024206B0BDE8F09FCBF10000DFE7044685
:101170000021404A491842EB0450CDE9001012E02A
:10118000E00707D032463B4640464946FFF7C8F9DC
:101190008046894632463B4610461946FFF7C0F95D
:1011A00006460F466410002CEAD1DDE90401DDE9B2
:1011B0000023BAF1000F06DAFFF7B2F942464B46B8
:1011C000FFF7AEF905E0FFF71DFA42464B46FFF781
:1011D00019FA04460E460022284BFFF783FA03D87B
:1011E0004FF0FF30014607E00022254B20463146F4
:1011F000FFF7EFF8FFF763FB102409E0002C0ADB90
:101200000A220023FFF79CFA039B30321A55641E12
:1012100050EA0102F2D1641C039AC4F11103144490
:10122000119A012A03D0012208430DD10AE0084394
:1012300004D000204FF0110B119072E7A3EB0B05C7
:101240006D1E0DE05B4504DD4FF0000205F1010568
:1012500004E003DA4FF00002A5F10105002AECD00A
:1012600002981199C0E90231C0E9004579E7000010
:10127000000014400000F03F300000000000F04388
:101280000000E03F2DE9F04389B0064688469146CC
:10129000002400E0641C305D202804D0305D092863
:1012A00001D04445F6D324B94FF0FF3009B0BDE872
:1012B000F0832146304601F0F3FC054615B94FF0A6
:1012C000FF30F3E7202101A8FFF741F801AA4146CA
:1012D000304601F055FD074617B94FF0FF30E5E7FE
:1012E00001A93846A847C9F800000020DEE7000041
:1012F0002DE9FF4F95B09A46884606460025EEE157
:10130000252877D100242746F94A0121039400E0DB
:10131000044316F8013F203B01FA03F01042F7D1D5
:1013200030782A2811D06FF02F033078A0F13002E6
:10133000092A16D8039A44F0020402EB820203EB56
:1013400042021044761C0390EFE758F8042B0392F6
:10135000002A03DA504244F40054039044F002049B
:10136000761C30782E2816D116F8010F44F00404AC
:101370002A280DD06FF02F023078A0F13003092B0E
:1013800009D807EB870302EB4303C718761CF3E782
:1013900058F8047B761C30786C280FD006DC4C287B
:1013A00017D068280DD06A2814D104E0742810D012
:1013B0007A280FD10DE044F400140AE044F48014BC
:1013C00001E044F440147278824202D104F58014A2
:1013D000761C761C307866280BD013DC582877D022
:1013E00009DC002875D04528F6D04628F4D04728D7
:1013F0001AD193E118E0632835D0642879D06528A4
:1014000012D18BE1702873D008DC6728F1D06928ED
:101410006FD06E280DD06F2806D1ACE073282CD089
:10142000752874D0782853D05246179990476D1C70
:1014300054E1C4F30250022809D003280DD0D8F893
:10144000001004280DD00D6008F1040846E1D8F81A
:101450000010EA17C1E90052F6E7D8F800100D8035
:10146000F2E70D70F0E718F8041B8DF8001000206B
:101470008DF80100EB46012003E058F804BB4FF063
:10148000FF3061074FF0000102D40DE009F10101C6
:101490008946B9420FDA8145F8DB1BF809100029AB
:1014A000F4D108E009F1010189468142FADB1BF819
:1014B00009100029F6D103985346A0EB09072146ED
:1014C0003846179A00F080FA284400EB090507E037
:1014D00044E008E10DE01BF8010B524617999047D4
:1014E000B9F10109F7D2534621463846179AF2E07E
:1014F00039E00A21C4F302524FF0000B0091022A96
:1015000006D058F8040BC117032A09D00AE023E0DB
:1015100008F1070020F00702F2E80201904605E01A
:1015200000B2C117042A01D140B2C117002906DA5E
:101530000A460021404261EB02012D2202E0220511
:1015400004D52B228DF80420012203E0E20701D00C
:101550002022F7E7914657E00A2100E010214FF0E2
:10156000000B00910BE010214FF0000B44F004043D
:101570000827009103E008204FF0000B0090C4F30F
:101580000252022A05D058F8040B0021032A08D081
:1015900008E008F1070020F00702F2E80201904697
:1015A00003E080B2042A00D1C0B24FF00009220744
:1015B0002AD53278702A07D0DDF800C08CF0100CE4
:1015C0005CEA0B0C05D00EE040228DF804200122CD
:1015D00008E050EA010306D030238DF804308DF87E
:1015E000052002229146009B83F0080353EA0B0377
:1015F0000AD150EA010201D1620705D530228DF8E7
:1016000004204FF001097F1E3278582A04D039A2F5
:101610000C920CAA02920BE03BA2F9E75B46009AFF
:10162000FFF78EF80C9B9B5C029A521E029213707D
:1016300050EA0102F2D1029804A9081A00F1200B25
:10164000600702D524F4803400E001275F4502DD05
:10165000A7EB0B0000E0002000EB0B0100900398CB
:101660004944401A0390E00306D453462146179A92
:10167000039800F0A9F90544002706E001A85246A6
:10168000C05D179990476D1C7F1C4F45F6DBE0034A
:101690000CD553462146179A039800F095F9054456
:1016A00004E030205246179990476D1C0099481E5F
:1016B00000900029F5DC08E0029802995246007873
:1016C000491C0291179990476D1CBBF10001ABF1C9
:1016D000010BF1DC5BE100F065F90544761C307824
:1016E00000287FF40DAE19B02846BDE8F08F000049
:1016F00009280100303132333435363738396162E8
:1017000063646566000000003031323334353637AB
:10171000383941424344454600000000600700D488
:10172000062708F1070020F00700F0E802238046B2
:1017300003F0004C5FEA0C0001D097A009E02005FF
:1017400001D596A005E0E00701D095A001E0AFF239
:101750004C001390307823F0004365280CD006DC51
:10176000452809D046281DD047287FD13BE0662870
:1017700018D067287AD136E00021112F01DB112023
:1017800000E0781CCDE9000104A90CA8FFF7B8FC23
:10179000DDE90D010C9A4FF0000B07F101091092E1
:1017A00000914EE04FF000400097CDE9011004A9F0
:1017B0000CA8FFF7A5FCDDE90D020C9B0F994FF07B
:1017C000000B91461093009211B9791C00EB0109AE
:1017D000B7EB090003D4C0F1FF3B07F10109A9EB06
:1017E0000700019042E0012F00DA01270021112FAC
:1017F00001DD112000E03846CDE9000104A90CA864
:10180000FFF77EFCDDE90D010C9A00914FF0000B13
:10181000B946109221070FD4009A4A4503DA91463F
:1018200001E0A9F10109B9F1010F05DD109AA9F153
:101830000101515C3029F4D0B84202DA10F1040FF2
:1018400003DA0121CDE9011010E0002803DC834414
:10185000A9EB000102E0411C494500DD8946A0EBEF
:101860000B00401C01904FF000400290200705D46F
:101870000198484502DB4FF0FF30019000208DF8C1
:101880004B0002980DF14B07B0F1004F25D002201C
:101890000C902B200D90029800280CDA4042029008
:1018A0002D200D9007E00A210298FEF733FF30311A
:1018B000029007F8011D0C99481E0C900029F2DCDB
:1018C00002980028EFD1791E0D980870307800F04A
:1018D000200040F0450007F8020D11A8C01BC01DF4
:1018E00002901398007800B1012000EB09010198E3
:1018F00001EBE071029801440398401A401E0390E6
:10190000E00306D453462146179A039800F05CF88A
:1019100005441398007818B15246179990476D1CEA
:10192000E00323D553462146179A039800F04CF85C
:1019300005441BE0BBF1000F07DB0098584504DDB0
:101940001098179910F80B0001E0179930205246B3
:10195000904701980BF1010B401E05F10105019024
:1019600004D12E205246179990476D1CB9F1000101
:10197000A9F10109DEDC05E017F8010B52461799C1
:1019800090476D1C0299481E02900029F4DC5346D2
:101990002146179A03989EE62D0000002B000000B8
:1019A000200000002DE9F041044600251E461746A0
:1019B000880404D405E039462020B0476D1C641E1D
:1019C000F9D52846BDE8F0812DE9F041044600250F
:1019D0001E469046C80301D5302700E02027880422
:1019E00004D505E041463846B0476D1C641EF9D564
:1019F0002846BDE8F08100002DE9FC5F04468B46D7
:101A000015461E46DDE90C9ADDE90E7804F11C004E
:101A10004060006000BF24346560A660C4F80C908C
:101A2000C4F810A02321D4E9030201F076FFD4E921
:101A3000033C63441A1F0F4BD4E9010101F08AFDF6
:101A40002060A77667760020E061C4F82080C4F8A3
:101A5000248060612076E0652066243C0090234667
:101A6000054A2146019004F14C0002F0B8FC002028
:101A7000BDE8FC9F793F0008B94100082DE9F04717
:101A800004460E4617469846DDF8209084F81190DB
:101A9000607C20F0010060746662A7620020206311
:101AA000C4F82C80002506E004F11C0101EBC50000
:101AB00001F000FE6D1C012DF6DBBDE8F08770B56E
:101AC0000546002406E005F11C0101EBC40001F00D
:101AD00044FE641C012CF6DB70BD70B50446FEF7B5
:101AE00083FB0546D4F8800018B12046D4F8801056
:101AF00088472846FEF77CFB70BD000010B520A08B
:101B000001F0BAFD2148017821A001F0B5FD1F4880
:101B1000007800F0010010B123A001F0ADFD1B48DA
:101B2000007800F0020010B122A001F0A5FD1748D6
:101B3000007800F0040010B121A001F09DFD1348D1
:101B4000007800F0080010B121A001F095FD0F48C9
:101B5000007800F0100010B120A001F08DFD0B48BE
:101B6000007800F0800030B108480F3001681DA0F7
:101B700001F082FD02E01FA001F07EFD10BD00001B
:101B8000627573206661756C743A0A0029ED00E095
:101B90005343425F434653525F424653523A307872
:101BA00025303258200000004942555345525220FA
:101BB0000000000050524543495345525220000056
:101BC000494D5052454349534552522000000000B0
:101BD000554E53544B4552522000000053544B4530
:101BE000525220005343422D3E424641523A253044
:101BF00038580A000A00000070B504460D4600F08F
:101C0000B7FC002070BD70B504460D4600F088FD9D
:101C1000002070BD00B587B001210846FEF758FFCF
:101C200001211020FEF764FF072209211E48FEF75C
:101C3000EFFE07220A211C48FEF7EAFE4FF4C060BF
:101C4000059002208DF8180003208DF8190000205F
:101C50008DF81A0001208DF81B0005A91248FEF727
:101C60008FFE4FF4E13001900020ADF80800ADF890
:101C70000A00ADF80C00ADF810000C20ADF80E0015
:101C800001A90A48FFF76CF901210848FFF700F99C
:101C900040210648FFF7EDF8012240F225510348A4
:101CA000FFF739F907B000BD000002400010014005
:101CB00010B5024600200BE0135C074CA38000BF68
:101CC000054B1B8803F04003002BF9D0431CD8B20E
:101CD0008842F1DB10BD00000010014010B515482E
:101CE000006890F82900C0F3400020B90020124994
:101CF0000870084610BD1148006840B14FF480726A
:101D00000E4801680C48FEF739FB0B48F2E701F07A
:101D100035F820B10AA10848FEF743FB03E00AA109
:101D20000548FEF73EFB0AA10348FEF71BFB0248ED
:101D3000E0E70000CC0000200C170020D0000020BD
:101D40006D7368200000000066696E7368200000F3
:101D50003E00000010B501F0ADFA10BD054909685C
:101D600091F8291060F34101024A126882F82910A3
:101D700070470000CC000020024A1060024A116047
:101D800070470000BC000020C00000207CB500258A
:101D900017491848FFF7F0FF8021012001F096F95C
:101DA000154908600846006820B914A001F064FCD9
:101DB000681E7CBD0A2015214FF400730022CDE976
:101DC0000010144914A002F0AEF8044600231A468D
:101DD00013A10948006801F0EBFE0120FFF7BEFFE8
:101DE0001CB115B9204602F0AFF90020E1E7000070
:101DF000184F0008584E0008CC0000206E6F206D70
:101E0000656D6F727920666F72207368656C6C0AFD
:101E100000000000291E0008747368656C6C0000E7
:101E20007368727800000000E948006890F82900A3
:101E300020F00100401CE649096881F82900FFF7FD
:101E40004DFF054601F018FCC1E1FFF783FF044692
:101E5000002C00DABBE11B2C05D10120DC4909680C
:101E600081F82800B3E1DA48006890F828000128DA
:101E70000DD15B2C05D10220D549096881F82800D5
:101E8000A5E10020D249096881F8280045E0D04842
:101E9000006890F8280002283FD10020CC4909684A
:101EA00081F82800412C00D191E1422C00D18EE133
:101EB000442C11D1C6480068B0F87C0058B1C5A0C8
:101EC00001F0DAFBC2480068B0F87C00401EC0494F
:101ED0000968A1F87C007AE1432C1ED1BC48006857
:101EE000B0F87C00BA490968B1F87A10884213DA70
:101EF000B7480068B0F87C20B54800682A30815C9B
:101F0000B5A001F0B9FBB2480068B0F87C00401CF5
:101F1000AF490968A1F87C0059E10CB1FF2C00D150
:101F200055E1092C1FD1002503E0AAA001F0A4FB74
:101F30006D1CA7480068B0F87C00A842F5DCA448F6
:101F400000682A3002F0AEFCA14800682A30FEF793
:101F500021FA80B29E490968A1F87A009C49096873
:101F6000A1F87C0033E17F2C01D0082C6ED1984879
:101F70000068B0F87C0000B929E195480068B0F825
:101F80007A00401E92490968A1F87A0090480068DA
:101F9000B0F87C00401E8E490968A1F87C008C488E
:101FA0000068B0F87A008A490968B1F87C10884264
:101FB0003FDD874B1B68B3F87A30854E3668B6F83C
:101FC0007C609A1B824B1B68B3F87C305B1C804E94
:101FD00036682A3699197E4B1B68B3F87C607C4BB7
:101FE0001B682A33F01801F077FC0022784800685B
:101FF000B0F87A10764800682A3042547448006875
:10200000B0F87C20724800682A30111873A001F0E3
:1020100033FB6F480068B0F87C5003E06DA001F01E
:102020002BFB6D1C6A480068B0F87A00A842F5DA0C
:102030000BE06CA001F020FB002165480068B0F8BF
:102040007A20634800682A308154C0E00D2C01D00A
:102050000A2C2BD100F092FE012812D15C480068B6
:1020600090F8290000F0010010B15FA001F004FB1E
:1020700057480068B0F87A10554800682A3000F0D8
:10208000D9FDFFF72BFE054601F0F6FA5021504826
:1020900000682A30FEF75BF900204D490968A1F875
:1020A0007A004B490968A1F87C0090E04848006834
:1020B000B0F87A00502804DB002045490968A1F8EF
:1020C0007A0043480068B0F87C0041490968B1F8DB
:1020D0007A10884245DA3E4B1B68B3F87A303C4EA2
:1020E0003668B6F87C609A1B394B1B68B3F87C6085
:1020F000374B1B682A33F118354B1B68B3F87C301B
:102100005B1C334E36682A36981901F0E5FB3048DF
:102110000068B0F87C202E4800682A3084542C488F
:10212000006890F8290000F0010050B128480068CC
:10213000B0F87C20264800682A3011182BA001F046
:102140009BFA23480068B0F87C5003E021A001F01E
:1021500093FA6D1C1E480068B0F87A00A842F5DCBE
:1021600012E01B480068B0F87A20194800682A304D
:1021700084541748006890F8290000F0010018B155
:10218000214615A001F078FA002411480068B0F843
:102190007A00401C0E490968A1F87A000C480068D2
:1021A000B0F87C00401C0A490968A1F87C00084886
:1021B0000068B0F87A00502808DB0020044909685C
:1021C000A1F87A0002490968A1F87C0000BF3CE64A
:1021D000CC000020080000002563000008257320C3
:1021E00020080000082008000A00000025730000F5
:1021F00000BF054A128802F04002002AF9D0C2B29C
:10220000014B9A80704700000010014010B514483F
:10221000006800F0020010B112A001F02DFA104881
:10222000006800F0804088B10D48C01E007808B1F9
:10223000FFF764FC0A48001F007808B100F036FC84
:102240000748801E008808B102F0ACFB0448006813
:1022500000F0004010B109A001F00EFA10BD00001E
:102260002CED00E06661696C656420766563746FCF
:10227000722066657463680A000000006465627518
:1022800067206576656E740A0000000010B502A034
:1022900001F0F2F9002010BD48656C6C6F205254BB
:1022A0002D546872656164210A000000002422E058
:1022B000642001F0F9FE601C84B2022C03D10120DD
:1022C000FEF7E6FB17E0042C03D10220FEF7E0FB4B
:1022D00011E0062C03D10420FEF7DAFB0BE0082CFA
:1022E00003D10820FEF7D4FB05E00D2C03D1002418
:1022F0000F20FEF7B1FBDBE710B50DA001F0BCF934
:10230000104804680DE002220FA12068FEF752F881
:1023100000B905E00DA0D4E9001201F0ADF900BF4D
:102320000C340E4800688442EDD3002010BD00003C
:102330002D2D46756E6374696F6E204C6973743A07
:102340000A000000BC0000205F5F0000252D313630
:1023500073202D2D2025730A00000000C0000020EE
:102360002DE9F04704460D4616461F46284601F063
:1023700043FB814609F10408C4F8008025726660B9
:10238000E76000202061BDE8F0872DE9F84F07469F
:102390000C464FF0000A00202061E06808B1207A66
:1023A00010B90020BDE8F88FD4F800801FB9454669
:1023B0004FF0010A00E03D46FDF716FF0090BAF12C
:1023C000000F0ED1A5F1140B9BF8100020F0800037
:1023D000217A884204D00098FDF70AFF0020E1E747
:1023E00000BF0026D4F804900BE02D68454501D1CC
:1023F000002507E0761C49F8045BE068B04200D194
:1024000000E0F2E700BF0098FDF7F2FE26612846E3
:10241000C8E700002DE9F04F91B000270FF2D40972
:10242000082304AA05210CA8FFF79AFF4FF0100813
:102430004A46414631A001F01FF9404600F018FD20
:1024400037A001F019F900BF0CA93846FFF79DFF2E
:102450000746002545E004A850F82500A0F1140621
:10246000FDF7C2FE8346307C20F080009DF83810D6
:10247000884203D05846FDF7BBFE31E05846FDF7D1
:10248000B7FE344604F11C0001F043F9B8B904F179
:102490001C0001F046F98246208D618D23461022F2
:1024A000CDE9010A0091414624A001F0E5F804F1CC
:1024B0001C0002F013FA27A001F0DEF80FE004F18F
:1024C0001C0001F02EF98246208D618D23461022DA
:1024D000CDE9010A009141461FA001F0CDF800BFEF
:1024E0006D1C1098A842B6DC002FADD1002011B0B1
:1024F000BDE8F08F6D61696C626F7800252D2A2E22
:102500007320656E7472792073697A6520737573B0
:1025100070656E64207468726561640A0000000072
:10252000202D2D2D2D20202D2D2D2D202D2D2D2D0F
:102530002D2D2D2D2D2D2D2D2D2D0A00252D2A2E25
:102540002A7320253034642020253034642025640B
:102550003A0000000A000000252D2A2E2A732025AB
:102560003034642020253034642025640A000000C3
:1025700010B50848016808A001F07EF80B48016812
:102580000BA001F079F80F4801680FA001F074F872
:1025900010BD00004C000020746F74616C206D65EC
:1025A0006D6F72793A2025640A0000005000002007
:1025B00075736564206D656D6F7279203A202564AE
:1025C0000A000000540000206D6178696D756D206F
:1025D000616C6C6F6361746564206D656D6F727999
:1025E0003A2025640A0000002DE9F04F8FB0002743
:1025F0000FF2CC09082302AA02210AA8FFF7B0FEB5
:102600004FF010084A46414630A001F035F84046E8
:1026100000F02EFC34A001F02FF800BF0AA93846C4
:10262000FFF7B3FE0746002541E002A850F8250059
:10263000A0F11406FDF7D8FD8346307C20F0800021
:102640009DF83010884203D05846FDF7D1FD2DE0AB
:102650005846FDF7CDFD344604F11C0001F059F851
:10266000A8B904F11C0001F05CF88246A08C234656
:1026700010224146CDE9000A21A000F0FDFF04F13F
:102680001C0002F02BF917A000F0F6FF0DE004F19A
:102690001C0001F046F88246A08C234610224146D9
:1026A000CDE9000A1AA000F0E7FF00BF6D1C0E98EC
:1026B000A842BADC002FB1D100200FB0BDE8F08FE6
:1026C00073656D6170686F7265000000252D2A2E9C
:1026D00073207620202073757370656E6420746893
:1026E000726561640A000000202D2D2D202D2D2DF6
:1026F0002D2D2D2D2D2D2D2D2D2D2D0A00000000E1
:10270000252D2A2E2A7320253033642025643A0093
:10271000252D2A2E2A7320253033642025640A00B3
:102720002DE9F04FB3B04FF000090FF21C1B082346
:1027300025AA01212DA8FFF713FE4FF0100A5A46D3
:102740005146434800F098FF504600F091FB41A0ED
:1027500000F092FF00BF2DA94846FFF716FE814604
:102760004FF0000865E025A850F82800A0F11405F6
:10277000FDF73AFD3290287C20F080009DF8BC10D7
:10278000884203D03298FDF733FD50E08822294675
:1027900003A8FDF7C3FD3298FDF72AFD2C4694F8F7
:1027A0003D0023461022514600903AA000F064FFFD
:1027B00094F83C0000F00F06012E03D138A000F081
:1027C0005BFF15E0022E03D138A000F055FF0FE0AB
:1027D0001EB939A000F050FF0AE0042E03D139A041
:1027E00000F04AFF04E0032E02D139A000F044FFBC
:1027F000276B00E07F1C38782328FBD0D4E90C102D
:10280000791A401A64214843616BB0FBF1F00290E1
:10281000A16BA06CCDE90001636A206BC01A636BE9
:10282000C1181A462DA0029B00F026FF00BF08F138
:1028300001083198404596DCB9F1000F8BD100209A
:1028400033B0BDE8F08F0000746872656164000009
:10285000B84B0008202D2D2D20202D2D2D2D2D2D78
:102860002D202D2D2D2D2D2D2D2D2D2D202D2D2DB2
:102870002D2D2D2D2D2D2D20202D2D2D2D2D2D20AF
:10288000202D2D2D2D2D2D2D2D2D2D202D2D2D0AB5
:1028900000000000252D2A2E2A73202533642000F5
:1028A0002072656164792020000000002073757338
:1028B00070656E640000000020696E69742020203D
:1028C0000000000020636C6F736520200000000092
:1028D0002072756E6E696E670000000020307825EA
:1028E0003038782030782530387820202020253066
:1028F0003264252520202030782530387820253076
:1029000033640A002DE9F04790B000270FF2B409B4
:10291000082303AA0A210BA8FFF722FD4FF0100895
:102920004A46414629A000F0A7FE404600F0A0FA22
:1029300030A000F0A1FE00BF0BA93846FFF725FD2F
:10294000074600262DE003A850F82600A0F1140445
:10295000FDF74AFC8246207C20F080009DF8341070
:10296000884203D05046FDF743FC19E05046FDF77E
:102970003FFC2546D5E90B012B461022CDE900018D
:10298000414625A000F078FE687C00F0010018B1F7
:1029900027A000F071FE02E028A000F06DFE00BF4D
:1029A000761C0F98B042CEDC002FC5D101F062FC3E
:1029B0000446214625A000F05FFE002010B0BDE8CF
:1029C000F087000074696D6572000000252D2A2EC5
:1029D000732020706572696F6469632020207469B8
:1029E0006D656F757420202020202020666C616743
:1029F0000A000000202D2D2D2D2D2D2D2D2D2D20CB
:102A00002D2D2D2D2D2D2D2D2D2D202D2D2D2D2D03
:102A10002D2D2D2D2D2D0A00252D2A2E2A73203007
:102A2000782530387820307825303878200000003C
:102A30006163746976617465640A0000646561634A
:102A4000746976617465640A0000000063757272CF
:102A5000656E74207469636B3A3078253038780A73
:102A600000000000FDF75EFF322001F01DFB07A013
:102A7000FEF700FB01F06EFFC82001F015FB03E03C
:102A80004FF4FA7001F010FBFAE70000737973203D
:102A9000696E6974206F6B210D0A000010B5044641
:102AA00000F034FBFFF7DEFF10BD000010B51CA0E6
:102AB00000F0E2FD1F4801781FA000F0DDFD1D4879
:102AC000007800F0010010B121A000F0D5FD1948F8
:102AD000007800F0020010B120A000F0CDFD1548F4
:102AE000007800F0080010B11FA000F0C5FD1148EB
:102AF000007800F0100010B11EA000F0BDFD0D48E0
:102B0000007800F0800030B10A480C3001681CA049
:102B100000F0B2FD02E01EA000F0AEFD10BD00000E
:102B20006D656D206D616E616765206661756C74A1
:102B30003A0A000028ED00E05343425F43465352F7
:102B40005F4D4653523A307825303258200000000D
:102B50004941434356494F4C200000004441434300
:102B600056494F4C200000004D554E53544B455292
:102B7000522000004D53544B45525220000000009B
:102B80005343422D3E4D4D41523A253038580A00AC
:102B90000A0000002DE9F04781460026002799F839
:102BA000000028B90021084600F0A8F8BDE8F08729
:102BB0001B48046827E006221AA12068FDF7FAFBEB
:102BC00000B11FE0206800F106084846FDF7E2FB6F
:102BD0008246524641464846FDF7ECFB88B926B985
:102BE00047463846FDF7D6FB06464146384601F0D3
:102BF000A0FE0546B54200DA2E4641460BA000F085
:102C00003BFD00BF0C340A4800688442D3D327B18F
:102C100032463946484601F0A2F800BFC6E7000038
:102C2000BC0000205F5F636D645F000025730A00D5
:102C3000C000002038B504460D4601E0641C6D1E3E
:102C40002DB120782028F9D020780928F6D00DB9A8
:102C5000002038BD6A4629462046FEF713FB08B916
:102C60000098F6E7204600E0401C0178202902D0B9
:102C700001780029F8D100210170214602A000F05E
:102C8000FBFC4FF0FF30E4E725733A20636F6D6D76
:102C9000616E64206E6F7420666F756E642E0A001C
:102CA0002DE9F04106460D4600271048046815E05E
:102CB00006220FA12068FDF77DFB00B10DE0216821
:102CC000881D2A463146FDF775FB28B9A81D2168E5
:102CD000085C08B9A76805E000BF0C340648006826
:102CE0008442E5D300BF3846BDE8F081BC00002037
:102CF0005F5F636D645F0000C000002070B5054633
:102D00000E460FA000F0B8FC144804680EE006223E
:102D100013A12068FDF74EFB00B106E0D4E90002E4
:102D2000811D11A000F0A8FC00BF0C341148006800
:102D30008442ECD310A000F09FFC002070BD000086
:102D400052542D546872656164207368656C6C2000
:102D5000636F6D6D616E64733A0A0000BC00002001
:102D60005F5F636D645F0000252D313673202D2079
:102D700025730A00C00000200A00000001207047EF
:102D80002DE9F04782460E4690465446002500271E
:102D900055E003E000202070641C6D1C2078202882
:102DA00002D02078092801D1B542F3D3082F12D3DD
:102DB00026A000F061FC4FF0000906E058F8291049
:102DC0002AA000F059FC09F10109B945F6D326A063
:102DD00000F052FC35E0B54200D332E020782228E2
:102DE0001CD1641C6D1C48F827407F1C09E020782A
:102DF0005C2804D16078222801D1641C6D1C641CFD
:102E00006D1C2078222801D0B542F0D3B54200D302
:102E100017E000202070641C6D1C10E048F827406B
:102E20007F1C01E0641C6D1C2078202804D02078D1
:102E3000092801D0B542F5D3B54200D301E0B5422F
:102E4000A7D300BF3846BDE8F0870000546F6F205D
:102E50006D616E7920617267732021205765206F44
:102E60006E6C79205573653A0A00000025732000C6
:102E700010B5044602E004A000F0FEFB201EA4F101
:102E80000104F8D110BD00002D00000030B51A4C2F
:102E9000436824681919884215D04B889BB9174B91
:102EA0001B6899420FD0164B1B688B4201D1144B03
:102EB00018604B684360104B1B68C31A0E4D4C687A
:102EC0002D682C44A3600C4C836824681A19824234
:102ED00011D053887BB90A4B1B68834201D1084B40
:102EE0001A6043685360044B1B68D31A024D446850
:102EF0002D682C44A36030BD400000204400002019
:102F0000480000202DE9F04F86B00D469C46DDE9D3
:102F1000106401960F9B04F04008B8F1000F02D036
:102F2000DFF8708101E0DFF87081CDF8008004F0F7
:102F30001008B8F1000F01D024F0010404F00108DA
:102F4000B8F1000F02D04FF0300801E04FF0200838
:102F5000C246002704F00208B8F1000F11D0002A81
:102F600002DA2D2752420CE004F00408B8F1000FF9
:102F700001D02B2705E004F00808B8F1000F00D0BD
:102F80002027002142B94FF0300B8846491C0DF133
:102F9000080909F808B01DE01AE0E146B9F10A0F86
:102FA00008D14FF00A0BB2FBFBFE0BFB1E28B2FB55
:102FB000FBF202E002F00F08120900BFDDF80090FA
:102FC00019F808B08846491C0DF1080909F808B03D
:102FD000002AE2D1B14200DD0E469B1B04F011082D
:102FE000B8F1000F10D117B1002B00DD5B1E06E019
:102FF000A84203D24FF0200880F80080401CB3F1B3
:103000000008A3F10103F3DC27B1A84200D2077046
:103010005B1E401C04F01008B8F1000F0AD104E058
:10302000A84201D280F800A0401CB3F10008A3F12F
:103030000103F5DC06E0A84203D24FF0300880F827
:103040000080401CB046761E8845F4DC08E0A842AB
:1030500005D20DF1080818F8018080F80080401CA6
:10306000B1F10008A1F1010104DDDDF80480B8F13F
:10307000000FECD106E0A84203D24FF0200880F800
:103080000080401CB3F10008A3F10103F3DC06B09B
:10309000BDE8F08FA74B0008964B00081CB5142024
:1030A0000A214FF400730022CDE90010044905A065
:1030B00000F039FF0446204601F046F81CBD000030
:1030C0009D2A00086D61696E0000000070B504461D
:1030D0000D4604FB05F000F049FB06462EB104FB4B
:1030E00005F20021304600F018FC304670BD0000AB
:1030F00010B5044C02E020688047241D0248844239
:10310000F9D310BD444E00084C4E000810B5044CD5
:1031100002E020688047241D02488442F9D310BD94
:103120004C4E0008544E000810B5FDF75DF80446FB
:1031300004480088401C00B2024908802046FDF780
:1031400057F810BD9C00002010B5FDF74DF804465F
:103150000C480088401E00B20A4908800846B0F9B1
:10316000000000280ADC002008802046FDF740F817
:103170000548006828B100F087FC02E02046FDF712
:1031800037F810BD9C000020A000002070B5054657
:1031900005B970BD1D480068854203D31C4800680E
:1031A000854200D3F5E7A5F10C044FF0FF31194833
:1031B00000F03AFD608818B12088B0F5F55F08D0BE
:1031C00015A000F059FA23886288214619A000F062
:1031D00053FA002060804FF4F550208021480068A9
:1031E000844201D21F480460084960680968611A76
:1031F000401A1D490968081A1B4908602046FFF754
:1032000045FE044800F0E7FC00BFC2E74000002094
:1032100044000020E4150020746F2066726565206C
:103220006120626164206461746120626C6F636B11
:103230003A0A00006D656D3A203078253038782CD8
:10324000207573656420666C61673A2025642C20C4
:103250006D6167696320636F64653A20307825305B
:1032600034780A00480000205000002000487047D1
:103270005C030020004870475C13002070B5FDF728
:103280005BFD0B4800684FF47A71B0FBF1F4204607
:10329000FDF7D8FEFFF72CFFFFF7ECFF0446FFF722
:1032A000E5FF0546214600F075FD01F075FB70BD98
:1032B0001400002010B54FF0FF3440F225510B48A8
:1032C000FDF7FFFD20B10948FDF7B4FE04460BE011
:1032D00008210648FDF7E8FD18B108210348FDF76D
:1032E000BFFD052000F0E0FEE0B210BD001001407F
:1032F000F8B50546002400260D200090284600F071
:1033000025FD064600BF0BE0285D0A2803D10121F8
:103310006846FEF7CDFC28190121FEF7C9FC641CA4
:10332000B442F1D3F8BD00002DE9F041054605F1A6
:1033300028062C1D3348006840B1304631490968E1
:10334000884707460FB9BDE8F08100BF2EA0216C69
:1033500000F092F930A0616A00F08EF932A0A16A03
:1033600000F08AF934A0E16A00F086F936A0216BFA
:1033700000F082F938A0616800F07EF93AA0A168F7
:1033800000F07AF93CA0E16800F076F93EA02169EE
:1033900000F072F940A0616900F06EF942A0A169E5
:1033A00000F06AF944A0E16900F066F946A0216ADC
:1033B00000F062F948A0616B00F05EF94AA0A16BD1
:1033C00000F05AF94CA0E16B00F056F9287800F0B3
:1033D000040048B100F090FE074639464AA000F0CC
:1033E0004BF9FFF79DF902E04FA000F045F928786E
:1033F00000F0100010B953A000F03EF9FEF706FFF0
:1034000000BFFEE7380000207073723A2030782544
:103410003038780A000000007230303A20307825C9
:103420003038780A000000007230313A20307825B8
:103430003038780A000000007230323A20307825A7
:103440003038780A000000007230333A2030782596
:103450003038780A000000007230343A2030782585
:103460003038780A000000007230353A2030782574
:103470003038780A000000007230363A2030782563
:103480003038780A000000007230373A2030782552
:103490003038780A000000007230383A2030782541
:1034A0003038780A000000007230393A2030782530
:1034B0003038780A000000007231303A2030782528
:1034C0003038780A000000007231313A2030782517
:1034D0003038780A000000007231323A2030782506
:1034E0003038780A00000000206C723A20307825CD
:1034F0003038780A000000002070633A20307825C8
:103500003038780A000000006861726420666175D6
:103510006C74206F6E207468726561643A20257344
:103520000D0A0D0A00000000686172642066617572
:103530006C74206F6E2068616E646C65720D0A0D8C
:103540000A00000046505520616374697665210DBC
:103550000A000000F0B504460D461646301D20F066
:10356000070044380146002203E00D4F41F8227065
:10357000521C112AF9D34D624FF0000CC1F828C03B
:10358000C1F82CC0C1F830C0C1F834C08B63CC6323
:103590004FF0807CC1F840C000270F60F0BD0000F4
:1035A000EFBEADDE10B5FCF71FFE04460448007800
:1035B000401C034908702046FCF71AFE10BD0000AD
:1035C0003C00002010B5FCF70FFE044604480078CC
:1035D000401E034908702046FCF70AFE10BD00009B
:1035E0003C00002070B504462068A0F11C05284668
:1035F00000F064FD002070BD2DE9F04105460C4649
:103600009046204600F0B6FDB8F1000F03D0B8F1A7
:10361000010F23D105E004F11C01284600F062F8F7
:103620001DE02E680FE0A6F11C0794F83D0097F806
:103630003D10884206DA04F11C0107F11C0000F07D
:1036400051F802E03668AE42EDD100BFAE4204D17F
:1036500004F11C01284600F045F800E000BF00BF5F
:103660000020BDE8F08110B5044604F11C0000F014
:103670001BF8002010BD00000FB438B505A800905D
:10368000FF210848009B049A00F04EFF0446FF2CDF
:1036900000D9FF240348FFF72BFE0020009038BC20
:1036A0005DF814FBE4140020406000607047406047
:1036B00000607047406000607047026851600268B7
:1036C0000A600160486070470268516002680A60E1
:1036D0000160486070470268516002680A600160DA
:1036E000486070474268116042684A604160086003
:1036F000704701460868884201D1012070470020C8
:10370000FCE701460868884201D10120704700208B
:10371000FCE701460868884201D10120704700207B
:10372000FCE7014600200A4601E01268401C1368CD
:103730008B42FAD17047D0E900215160D0E90012E4
:103740001160406000607047D0E900215160D0E90D
:1037500000121160406000607047D0E900215160A4
:10376000D0E9001211604060006070472DE9F0411F
:10377000054615B90020BDE8F081E81C20F00305DE
:103780004E480068854201D90020F4E70C2D00D294
:103790000C254FF0FF314A4800F046FA49480068CE
:1037A00049490968461A7EE04748006884196088DC
:1037B000002874D106F10C006168081AA8426ED383
:1037C00006F10C006168091A05F11800814230D336
:1037D00006F10C0000EB05083B48006800EB080709
:1037E0004FF4F55038800020788060687860BE60C3
:1037F000C4F80480012060803048796800680C308B
:10380000814205D03049786809680844C0F80880CA
:103810002E48016805F10C0008442C4908602C482A
:1038200000680968884219D2284800682849086059
:1038300014E001206080244960680968611A401A18
:10384000224909680844214908602148006809683C
:10385000884203D21D4800681D4908604FF4F550A6
:10386000208018480068844212D107E0154800689B
:103870004068154909680844124908601148006801
:10388000408828B10F480068124909688842EDD184
:103890000B4800F0A0F904F10C006CE7FFE70A48C0
:1038A00000683044466805480068401BB0423FF657
:1038B0007BAF034800F08FF900205CE74C0000204C
:1038C000E4150020480000204000002050000020A7
:1038D000540000204400002070B50C4601462346E9
:1038E0008B4210D29D188D420DD91144134405E02E
:1038F0005D1E2B462E784D1E29462E70151EA2F1F8
:103900000102F5D108E003E013F8015B01F8015B67
:10391000151EA2F10102F7D170BDF0B50C460546A7
:10392000E6B2042A15D300F0030797B9014646EA28
:10393000062343EA034304E008C108C108C108C1E3
:10394000103A102AF8D201E008C1121F042AFBD253
:103950000D4601E005F8016B171EA2F10102F9D135
:10396000F0BD2DE9F04106460F46304600F044F820
:103970000546E868FFF7FAFE044614B90020BDE8E2
:10398000F08100212046EA68FFF7C7FF2674002077
:10399000607410223946204600F0E1F9FCF724FC5F
:1039A000804604F11401281DFFF787FE4046FCF70E
:1039B0001FFC2046E3E770B5044600202074FCF7A6
:1039C00013FC054604F11400FFF7B5FE2846FCF78A
:1039D0000FFC2046FFF7DAFB70BD70B504460020EF
:1039E0002074FCF701FC054604F11400FFF7A3FE68
:1039F0002846FCF7FDFB70BD024600210AE007489F
:103A000000EB01100078904203D1044800EB011054
:103A10007047491C0429F2DB0020F9E75800002018
:103A20002DE9F04704460D46904600262846FFF74C
:103A3000E3FF0746FFF778FB7E6802E0A6F114007B
:103A40003668381D8642F9D1FFF77EFB45F08000CD
:103A5000207410224146204600F081F9FCF7C4FB97
:103A6000814604F11401381DFFF727FE4846FCF794
:103A7000BFFBBDE8F0870146087C00F0800008B17C
:103A8000012070470020FCE72DE9F041FCF7ACFB7A
:103A900007461848008838BB17480068FDF7FAFA4F
:103AA000461E164850F83600A0F11C041448006861
:103AB000844218D013490E701148056804601248FA
:103AC000007850B904F1240105F12400FCF793FBC0
:103AD0003846FCF78DFBBDE8F08104F1240105F1C7
:103AE0002400FCF788FB00BF3846FCF781FB00BFD1
:103AF000F1E700009C000020980000200C16002038
:103B0000A0000020A40000203C00002070B5044666
:103B1000FCF76AFB054614F83C0F20F00F0040F05C
:103B20000100207062783C3C0A4B03EBC20004F1B8
:103B30001C014268116042684A604160086000BF31
:103B40000549206C09680843034908602846FCF7CA
:103B50004FFB70BD0C1600209800002070B5044685
:103B6000FCF742FB054604F11C00D0E9002151603E
:103B7000D0E9001211604060006000BF94F83D1071
:103B8000094A02EBC1000168814201D1012100E034
:103B9000002129B10548216C006888430349086069
:103BA0002846FCF725FB70BD0C160020980000206D
:103BB0002DE9F04104460D4616461F462A460221CD
:103BC0002046FFF72DFF2046FFF74DFDA6846774C2
:103BD0000020BDE8F08170B504460025FCF704FB29
:103BE000064604F11C00FFF784FD28B904F11C000F
:103BF000FFF7F8FC01250EE0A08C4FF6FF7188421C
:103C000003DAA08C401CA08405E03046FCF7F0FAF3
:103C10006FF0020070BD3046FCF7EAFA012D01D1C9
:103C2000FFF732FF0020F5E773B50546FCF7DCFA35
:103C30000646A88C002806DDA88C401EA8843046C5
:103C4000FCF7D6FA28E0019828B93046FCF7D0FAFC
:103C50006FF001007CBD00F04FFA04460020A06325
:103C60006A7C214605F11C00FFF7C6FC019800287C
:103C700009DD01AA002104F14C0000F06BFB04F106
:103C80004C0000F0C3FB3046FCF7B2FAFFF7FCFE35
:103C9000A06B08B1A06BDDE70020DBE708B509A049
:103CA000FFF7EAFC0AA0FFF7E7FC12A005230122B8
:103CB0000321009012A0FFF7DFFC19A0FFF7DCFC46
:103CC00008BD00000A205C207C202F0A00000000B4
:103CD0002D205254202D2020202020546872656110
:103CE00064204F7065726174696E672053797374D4
:103CF000656D0A004A756C20333120323032330052
:103D0000202F207C205C202020202025642E25646C
:103D10002E2564206275696C642025730A000000FA
:103D20002032303036202D203230323020436F7038
:103D30007972696768742062792072742D74687270
:103D4000656164207465616D0A00000001460A46E1
:103D500000E0521C10780028FBD1501A704770B553
:103D60000346A2B118460C4600BF14F8016B00F8D8
:103D7000016B3EB902E0002500F8015B551E2A1ECA
:103D8000F9D102E0551E2A1EEFD100BF00BF184630
:103D900070BD00002DE9F04105460E46E81C20F0FC
:103DA000030726F00308B8F1180F09D9A8F1180085
:103DB000B84205D3A8EB070018381E49086006E092
:103DC000324629461CA0FFF757FCBDE8F081294880
:103DD000076004684FF4F5502080164800680C30E6
:103DE00060600020A0606080224960680968084423
:103DF000214908604FF4F5500968088001201E49E8
:103E0000096848800B4800680C301B490968486005
:103E1000084800680C3018490968886000230122AE
:103E200016A11848FFF7C4FE12480068164908603A
:103E300000BFCAE74C0000206D656D20696E697493
:103E40002C206572726F7220626567696E206164F2
:103E5000647265737320307825782C20616E64203D
:103E6000656E6420616464726573732030782578B0
:103E70000A000000400000204400002068656170D6
:103E800000000000E41500204800002010B50020CC
:103E90000B490880002405E00A4901EBC400FFF744
:103EA00006FC641C202CF7DB1F200749087000204B
:103EB00006490860064908600648FFF7F8FB10BD90
:103EC0009C0000200C160020A4000020A000002070
:103ED00098000020A800002070B508480068FDF791
:103EE000D9F8451E064850F83500A0F11C040548D5
:103EF000046004F12400FCF7C4F970BD98000020B0
:103F00000C160020A000002010B5002405E0044994
:103F100001EBC400FFF7CEFB641C002CF7D010BDF2
:103F2000B000002070472DE9FF5F06460F4690461F
:103F30001D46DDE90EAB31460120FFF712FD81463B
:103F4000B9F1000F03D1002004B0BDE8F09F28466E
:103F5000FFF70CFC044624B94846FFF72CFD00206F
:103F6000F2E743463A46314648468DE8300CFDF7C5
:103F700043FD4846E8E7000070B513480468FCF7C5
:103F800033F905462046FDF7A8FD2046FFF7E6FD7C
:103F9000042084F83C0004F14C0000F00CFA2046A8
:103FA000FFF769FD012803D12046FFF716FD04E065
:103FB00004F11C010548FFF787FBFFF765FD284664
:103FC000FCF716F970BD0000A0000020A80000203A
:103FD00001E000F001F8FCE770B528E0FCF704F917
:103FE000054600BF13480168814201D0012100E06D
:103FF000002119B92846FCF7FBF819E00D480068C4
:10400000A0F11C0404F11C00D0E900215160D0E9AA
:10401000001211604060006000BF206BFFF7B6F82F
:104020002046FFF7C8FC2846FCF7E2F800BFD5E7BA
:1040300000BF70BDA80000201FB520201F21C200B6
:10404000074BCDE90032CDE902100023054A06A155
:10405000074800F00FF8064800F076F81FBD000092
:10406000E4130020D13F00087469646C650000000F
:104070005C1300202DE9FF5F05460C4616461F46DF
:10408000DDE910ABDDE90E89224601212846FFF764
:10409000C7FC3B463246214628468DE8000FFDF717
:1040A000ABFC04B0BDE8F09F70B50446204600F0BC
:1040B000C5F80546284600F025F870BD70B50446E1
:1040C00094F83C0000F00F00022802D04FF0FF30BF
:1040D00070BDFCF789F8054604F11C00FFF734FBBE
:1040E00004F14C0000F008FA2846FCF781F820465D
:1040F000FFF70CFD0020EBE7014800687047000067
:10410000A000002031B5FCF76FF805460D480468A3
:10411000204600F02FF86A46002104F14C0000F020
:1041200019F904F14C0000F071F92846FCF760F829
:10413000FFF7AAFCA06B801C08B90020A063002038
:1041400038BD0000A000002010B504463C34A07823
:1041500060706178012088406060022004F83C09AA
:104160002046FFF7ABFFFFF7C7FF08B1FFF78CFC56
:10417000002010BD70B5044694F83C0000F00F001C
:10418000012802D04FF0FF3070BDFCF72DF8054636
:104190002046FFF7E3FC94F83C0020F00F0040F0CD
:1041A000020084F83C0004F14C0000F0A5F9284618
:1041B000FCF71EF80020E7E770B5044625466FF0CF
:1041C0000100A86305F11C00FFF7BEFA2846FFF7BF
:1041D0009DFCFFF759FC70BD70B5FCF705F805466E
:1041E0001448046894F83C0000F00F0001281CD12A
:1041F000D4E90710814218D004F11C00FFF7A4FA9B
:1042000094F83D200C4B03EBC20004F11C01426802
:10421000116042684A604160086000BF2846FBF7B1
:10422000E7FFFFF731FC002070BD2846FBF7E0FFF9
:104230000020F9E7A00000200C160020014600290C
:1042400002DA4FF0FF3014E04FF47A7291FBF2F291
:104250004FF47A7302FB03F01A4691FBF2F302FB70
:1042600013124FF47A735A4302F2E73292FBF3F2DD
:104270001044704701480068704700002800002083
:1042800010B50A480068401C08490860FFF734FF71
:104290000446A06C401EA064A06C18B9606CA064B9
:1042A000FFF79AFF00F004F810BD0000280000207E
:1042B0007CB56846FFF7FEF9FFF7DCFF0546FBF724
:1042C00093FF06463AE022480068A0F11C04206BE8
:1042D000281A6FF0004188422ED22046FDF7EFFBEE
:1042E000607C00F0020018B9607C20F0010060746E
:1042F00004F11C016846FFF7EEF9D4E9091088477C
:10430000FFF7B8FF05466846FFF7FBF900B115E077
:1043100004F11C00FFF721FA607C00F0020060B19C
:10432000607C00F0010040B1607C20F0010060740E
:10433000204600F06BF800E005E000BF0448FFF7FE
:10434000E0F90028BFD000BF3046FBF751FF7CBD2D
:10435000B00000202DE9F04104460E461546FBF75B
:1043600043FF0746052E1ED2DFE806F00603090EBE
:104370001300E06A286017E02868E06214E0607CBF
:1043800020F0020060740FE0607C40F00200607476
:104390000AE0607C00F0010010B10120286001E01B
:1043A0000020286000E000BF00BF3846FBF720FF78
:1043B0000020BDE8F08170B50446FBF715FF054607
:1043C0002046FDF77CFB607C20F0010060742846ED
:1043D000FBF70EFF2046FFF700FB002070BD2DE924
:1043E000F84307460C4615461E46DDE90889224675
:1043F0000A213846FFF714FB434632462946384621
:10440000CDF80090FDF73AFBBDE8F8832DE9F843BD
:104410000546FBF7E9FE80462846FDF750FB687C21
:1044200020F001006874FFF725FFE96A084428635B
:104430002F4F009700242AE019E05DF8242011682E
:104440001C2202EBC402881A026B2B6BD21A00D119
:1044500008E0026B2B6BD21A6FF000439A4200D235
:104460000CE000BF5DF8240000684DF824005DF802
:10447000240007EBC40149688842DED100BF2CB19B
:104480005DF824000830611C4DF82100641C002CEC
:10449000D2D018480068401C1649086008460668D3
:1044A00005F11C010098FFF716F9022412E006F04E
:1044B000030060B9C4F1010305F11C0202EBC30162
:1044C000C4F101025DF82200FFF705F900E003E006
:1044D000B608641C012CEAD900BF687C40F00100DA
:1044E00068744046FBF784FE0020BDE8F8830000B6
:1044F000B0000020B800002070B50446607C00F0D9
:10450000010010B94FF0FF3070BDFBF76DFE05469E
:104510002046FDF7D4FA607C20F001006074284644
:10452000FBF766FE0020EFE72DE9FF4F89B08146DB
:104530004C460A9809EB00064E4504D24FF0FF3670
:10454000A6EB09000A9077E10B980078252806D0A1
:10455000B44202D20B9800782070641C69E10025F7
:1045600026E00B98401C0B900B9800782D2802D168
:1045700045F010051CE00B9800782B2802D145F07F
:10458000040515E00B980078202802D145F00805B5
:104590000EE00B980078232802D145F0200507E0B3
:1045A0000B980078302802D145F0010500E000E0CA
:1045B000D7E700BF4FF0FF370B98007830380A2854
:1045C00004D20BA800F0A2F907460EE00B98007881
:1045D0002A280AD10B98401C0B900C9880C80C908C
:1045E000002F02DA7F4245F010054FF0FF3A0B989A
:1045F00000782E281CD10B98401C0B900B9800784B
:1046000030380A2804D20BA800F080F982460AE06C
:104610000B9800782A2806D10B98401C0B900C9818
:1046200050F804AB0C90BAF1000F01DA4FF0000A19
:10463000002004900B980078682803D00B9800782D
:104640006C2805D10B98007804900B98401C0B90B7
:104650000A2005900B9800786F2873D00CDC632833
:1046600013D004DC25286ED058286DD195E064283D
:104670006BD06928F9D197E0702873D0732825D0C2
:1046800075286ED07828F0D18AE005F0100040B986
:1046900004E0B44201D220202070641C781E071E62
:1046A000F7DC0C9810F8041B0C90C8B20790B442C9
:1046B00001D207982070641C04E0B44201D220208B
:1046C0002070641C781E071EF7DCB2E00C980068AE
:1046D00006900C98001D0C90069808B960A00690F2
:1046E0004FF0000801E008F10108B84504D0069831
:1046F00010F808000028F6D1BAF1000F02DDD0450D
:1047000000DDD04605F0100048B904E0B44201D203
:1047100020202070641C38467F1E4045F6DC0020B7
:1047200008900BE0B44202D2069800782070641C16
:104730000698401C06900898401C08900898404530
:10474000F0DB09E026E01FE032E02CE00AE0B442B2
:1047500001D220202070641C38467F1E4045F6DCC4
:1047600067E024E0781C10B9082745F00105CDE981
:10477000007A02950C9804C8102331460C9020460C
:10478000FEF7C0FB044654E0B44201D2252020705D
:10479000641C4EE0082005901DE045F0400500BF78
:1047A0001020059017E000BF45F0020500BF12E0A1
:1047B000B44201D225202070641C0B98007830B1DF
:1047C000B44202D20B9800782070641C02E00B986F
:1047D000401E0B902DE000BF04986C2807D10C9868
:1047E00050F804BB0C9005F00200B8B116E0049834
:1047F00068280BD10C9830F8041B1FFA81FB0C9031
:1048000005F0020050B10FFA8BFB07E00C9850F84E
:1048100004BB0C9005F0020000B100BFCDE9007AA6
:1048200002955A4631462046059BFEF76BFB04462F
:1048300000BF0B98401C0B900B98007800287FF469
:1048400083AE0A9838B1B44202D20020207002E050
:10485000002006F8010CA4EB09000DB0BDE8F08FB4
:10486000284E554C4C29000000207047002070470E
:10487000002070470020704710B5FBF7B5FCFEF72D
:10488000FDFCFFF70BFAFFF73FFBFFF7FFFAFEF720
:1048900005FCFFF747FBFFF7CFFBFFF71DFB0020F1
:1048A00010BD000070B5044609A0FEF7E5FEFEF756
:1048B00065FA012802D12046FEF76CF9FDF70EFAE1
:1048C00005462246294603A0FEF7D6FE70BD00002D
:1048D0000A000000257325730000000070B504462F
:1048E00025680CE0A5F11C06314606A0FEF7C4FEC3
:1048F0002868A04202D004A0FEF7BEFE2D68A542A3
:10490000F0D170BD257300002F000000014600208B
:1049100009E00B685A1C0A601A7800EB800302EB6E
:104920004302A2F130000A681278303A0A2AF0D322
:10493000704710B503461A4601E0521C491C107816
:1049400028B1087818B110780C78A042F5D0D01AA8
:1049500010BD00001FB5642010214A01084BCDE9AD
:104960000032CDE902100023064A07A10948FFF7EB
:1049700081FB0848FFF7E8FB002004B010BD0000F1
:104980005C010020AD2200086C65645F746872658C
:1049900061640000D400002010B5FDF73BF9002051
:1049A00010BD000010B51EA0FEF766FE204801886D
:1049B00020A0FEF761FE1E48008800F0010010B143
:1049C00022A0FEF759FE1A48008800F0020010B13C
:1049D00021A0FEF751FE1648008800F0040010B137
:1049E00020A0FEF749FE1248008800F0080010B130
:1049F0001EA0FEF741FE0E48008800F4807010B142
:104A00001CA0FEF739FE0A48008800F4007010B1BF
:104A10001BA0FEF731FE05A0FEF72EFE10BD000024
:104A20007573616765206661756C743A0A000000F1
:104A30002AED00E05343425F434653525F554653CD
:104A4000523A30782530325820000000554E444507
:104A500046494E5354522000494E565354415445F2
:104A600020000000494E5650432000004E4F435056
:104A700020000000554E414C49474E45442000005F
:104A800044495642595A45524F20000010B5FFF78D
:104A900005F9002010BD0000010002000100030024
:104AA00001000200010004000100020001000300F7
:104AB00001000200010005000100020001000300E6
:104AC00001000200010004000100020001000300D7
:104AD00001000200010006000100020001000300C5
:104AE00001000200010004000100020001000300B7
:104AF00001000200010005000100020001000300A6
:104B00000100020001000400010002000100030096
:104B10000100020001000700010002000100030083
:104B20000100020001000400010002000100030076
:104B30000100020001000500010002000100030065
:104B40000100020001000400010002000100030056
:104B50000100020001000600010002000100030044
:104B60000100020001000400010002000100030036
:104B70000100020001000500010002000100030025
:104B80000100020001000400010002000100030016
:104B90000100020001003031323334353637383904
:104BA00061626364656600303132333435363738DC
:104BB0003941424344454600252D2A2E7320707208
:104BC0006920207374617475732020202020207365
:104BD000702020202020737461636B2073697A65D4
:104BE000206D61782075736564206C65667420742F
:104BF00069636B20206572726F720A006C6973744E
:104C00005F6D656D006C697374206D656D6F727991
:104C100020757361676520696E666F726D61746976
:104C20006F6E0068656C6C6F007361792068656CED
:104C30006C6F20776F726C640076657273696F6E4B
:104C40000073686F772052542D5468726561642038
:104C500076657273696F6E20696E666F726D6174CE
:104C6000696F6E005F5F636D645F76657273696F15
:104C70006E0073686F772052542D546872656164BA
:104C80002076657273696F6E20696E666F726D61F2
:104C900074696F6E006C6973745F746872656164C7
:104CA000006C69737420746872656164005F5F638F
:104CB0006D645F6C6973745F746872656164006CC5
:104CC00069737420746872656164006C6973745FE1
:104CD00073656D006C6973742073656D6170686FC6
:104CE000726520696E2073797374656D005F5F6310
:104CF0006D645F6C6973745F73656D006C69737468
:104D00002073656D6170686F726520696E207379BC
:104D10007374656D006C6973745F6D61696C626F4B
:104D200078006C697374206D61696C20626F782003
:104D3000696E2073797374656D005F5F636D645F86
:104D40006C6973745F6D61696C626F78006C697314
:104D500074206D61696C20626F7820696E207379B0
:104D60007374656D006C6973745F74696D6572004E
:104D70006C6973742074696D657220696E20737933
:104D80007374656D005F5F636D645F6C6973745FFE
:104D900074696D6572006C6973742074696D6572F5
:104DA00020696E2073797374656D006C697374008B
:104DB0006C69737420616C6C2073796D626F6C2008
:104DC000696E2073797374656D005F5F636D645FF6
:104DD00068656C700052542D54687265616420736C
:104DE00068656C6C2068656C702E005F5F636D6435
:104DF0005F7073004C6973742074687265616473CA
:104E000020696E207468652073797374656D2E0057
:104E10005F5F636D645F667265650053686F7720DE
:104E2000746865206D656D6F727920757361676553
:104E300020696E207468652073797374656D2E0027
:104E4000754800086D48000899490008694800083D
:104E50008D1D000871480008FC4B0008054C000837
:104E600071250008234C0008294C00088D220008F9
:104E7000394C0008414C00088D4A0008644C000879
:104E8000724C00088D4A0008954C0008A14C00089F
:104E900021270008AD4C0008BF4C0008212700085E
:104EA000CB4C0008D44C0008E9250008ED4C000864
:104EB000FC4C0008E9250008154D0008224D0008AB
:104EC000152400083A4D00084D4D0008152400082F
:104ED000654D0008704D000805290008854D000843
:104EE000964D000805290008AB4D0008B04D00089C
:104EF000F9220008CA4D0008D54D0008FD2C000815
:104F0000EB4D0008F44D0008071C0008104E000887
:104F10001B4E0008F91B0008384F00080000002055
:104F2000D4000000E01000080C500008D40000205D
:104F30003C270000F0100008000000000000000006
:104F40000102030401020304060708090095BA0AD6
:104F50000000000000000000010203040607080929
:104F60000000000000000000000000000000000041
:104F70000000000000000000000000000000000031
:104F80000000000000000000000000000000000021
:104F9000010000005C0000205C0000208800000090
:104FA000020000006C0000206C00002028000000BF
:104FB000050000007C0000207C000020380000007C
:104FC0000A0000008C0000208C000020340000004B
:104FD00000000000000000000000000000000000D1
:104FE00000000000000000000000000000000000C1
:104FF00000000000000000000000000000000000B1
:0C500000000000000000000000000000A4
:04000005080001AD41
:00000001FF
